:100D32002D2D736176652D2D646174612D2D0D004D
:100D420041433A2020202020203078253033580D8E
:100D52000041543A2020202020203078253033587A
:100D62000D00414E3A2020202020203078253033BB
:100D7200580D0042413A2020202020203078253092
:100D820032580D0042443A2020202020203078257D
:100D92003032580D0042463A202020202020307860
:100DA200253032580D005349472D4A4C3A20202510
:100DB200640D005349472D4A4E453A2025640D00E3
:100DC2005349472D41423A202025640D0043484BA8
:100DD2002D42493A202025640D0043484B2D494EAF
:100DE200543A2025640D0043484B2D4A453A2020B1
:100DF20025640D0043484B2D4A4E453A2025640D8B
:100E02000043484B2D4A423A202025640D004348B6
:100E12004B2D4A42453A2025640D0043484B2D4A4A
:100E22004C3A202025640D0043484B2D4A4C453A4C
:100E32002025640D0052493A25732025730D005276
:100E420000570044427573000052463A257320252C
:100E5200732025730D00414275730052503A257379
:100E62002025732025730D0052533A2573202573D4
:100E72002025730D0052413A2573202573202573D6
:100E82000D0052423A25732025732025730D00521E
:100E9200433A25732025732025730D0052443A25C9
:100EA200732025732025730D00414C553A2B2B0DD1
:100EB20000414C553A307846460D00414C553A2592
:100EC200780D0052543A25732025730D004D454D7F
:100ED2003A2573204F453A25642057453A25640D3B
:100EE200005349472D524F4D3A25640D005349474F
:090EF2002D52414D3A25640D001A
:0810CA007F017E007D007C0027
:1010D2008F5B8E5A8D598C58E47B0AFAF9F8120B01
:1010E200678F5B8E5A8D598C58785874FF120C9901
:0710F200EC4D4E4F70F3229C
:091145008B248A25892602114E33
:10000300C2911210CAD2917F017E007D007C000252
:0200130010D209
:080F87008E468F477F017E00BA
:040F8F008E4C8F4DA8
:100F9300E4F557F556F555F554F54EF54FC3E54FC2
:100FA300954DE54E954C5049A290E433F553755257
:100FB300007551007550001210CAC2921210CAD2A5
:100FC300921210CAAF53AE52AD51AC50A94FA80103
:100FD300120C84E5574FF557E5564EF556E5554D3A
:100FE300F555E5544CF554054FE54F70B0054E806B
:090FF300ACAF57AE56AD55AC543D
:010FFC0022D2
:100026001200037BFF7A0D79321211207F0C7E00BD
:10003600120F8F8E448F45754FFF75500D755142C7
:100046008544528545537B007A00792412084E7BFD
:10005600007A0079241211207F0C7E00120F8F8EF9
:10006600448F45754FFF75500D7551538544528524
:1000760045537B007A00792412084E7B007A00797A
:10008600241211207F0C7E00120F8F8E448F45752F
:100096004FFF75500D7551648544528545537B005D
:1000A6007A00792412084E7B007A007924121120F6
:1000B6007F087E00120F8F8E448F45754FFF755057
:1000C6000D7551758544528545537B007A00792418
:1000D60012084E7B007A0079241211207F087E00D8
:1000E600120F8F8E448F45754FFF75500D755186D3
:1000F6008544528545537B007A00792412084E7B4D
:10010600007A0079241211207F087E00120F8F8E4C
:10011600448F45754FFF75500D755197854452852F
:1001260045537B007A00792412084E7B007A0079C9
:1001360024121120120F8B8E448F45754FFF755078
:100146000D7551A88544528545537B007A00792464
:1001560012084E7B007A007924121120120F8B8E22
:10016600448F45754FFF75500D7551B585445285C1
:1001760045537B007A00792412084E7B007A007979
:10018600241211207F027E00120F8F8E448F457538
:100196004FFF75500D7551C28544528545537B00FE
:1001A6007A00792412084E7B007A007924121120F5
:1001B600120F8B8E448F45754FFF75500D7551CFBD
:1001C6008544528545537B007A00792412084E7B7C
:1001D600007A007924121120120F8B8E448F4575F8
:1001E6004FFF75500D7551DC8544528545537B0094
:1001F6007A00792412084E7B007A007924121120A5
:10020600120F8B8E448F45754FFF75500D7551E952
:100216008544528545537B007A00792412084E7B2B
:10022600007A007924121120120F8B8E448F4575A7
:100236004FFF75500D7551F68544528545537B0029
:100246007A00792412084E7B007A00792412112054
:10025600120F8B8E448F45754FFF75500E755103E7
:100266008544528545537B007A00792412084E7BDB
:10027600007A007924121120120F8B8E448F457557
:100286004FFF75500E7551108544528545537B00BE
:100296007A00792412084E7B007A00792412112004
:1002A600120F8B8E448F45754FFF75500E75511D7D
:1002B6008544528545537B007A00792412084E7B8B
:1002C600007A007924121120120F8B8E448F457507
:1002D6004FFF75500E75512A8544528545537B0054
:1002E6007A00792412084E7B007A007924121120B4
:1002F600120F8B120F878E488F49754FFF75500E60
:10030600755137E54745467BFF70067A0E79418081
:10031600047A0E79438B528A538954E54945487BC2
:10032600FF70067A0E794580047A0E794A8B558AD3
:100336005689577B007A00792412084E7B007A0092
:100346007924121120120F8B8E448F45120F8B12B7
:100356000F878E488F49754FFF75500E75514BE5C7
:100366004745467BFF70067A0E794180047A0E79FE
:10037600438B528A538954E54945487BFF70067A78
:100386000E794580047A0E794A8B558A568957E547
:100396004545447BFF70067A0E795880047A0E79BB
:1003A6004A8B588A59895A7B007A00792412084E5A
:1003B6007B007A007924121120120F8B8E448F4510
:1003C600120F8B120F878E488F49754FFF75500E8F
:1003D60075515DE54745467BFF70067A0E7941808B
:1003E600047A0E79438B528A538954E54945487BF2
:1003F600FF70067A0E794580047A0E794A8B558A03
:10040600568957E54545447BFF70067A0E79588034
:10041600047A0E794A8B588A59895A7B007A007970
:100426002412084E7B007A007924121120120F8BB9
:100436008E448F45120F8B120F878E488F49754F4A
:10044600FF75500E75516AE54745467BFF70067A83
:100456000E794180047A0E79438B528A538954E58A
:100466004945487BFF70067A0E794580047A0E79F5
:100476004A8B558A568957E54545447BFF70067A6F
:100486000E795880047A0E794A8B588A59895A7B94
:10049600007A00792412084E7B007A007924121122
:1004A60020120F8B8E448F45120F8B120F878E48AA
:1004B6008F49754FFF75500E755177E54745467B59
:1004C600FF70067A0E794180047A0E79438B528A40
:1004D600538954E54945487BFF70067A0E79458075
:1004E600047A0E794A8B558A568957E54545447BE9
:1004F600FF70067A0E795880047A0E794A8B588AEC
:1005060059895A7B007A00792412084E7B007A00BA
:100516007924121120120F8B8E448F45120F8B12E5
:100526000F878E488F49754FFF75500E755184E5BC
:100536004745467BFF70067A0E794180047A0E792C
:10054600438B528A538954E54945487BFF70067AA6
:100556000E794580047A0E794A8B558A568957E575
:100566004545447BFF70067A0E795880047A0E79E9
:100576004A8B588A59895A7B007A00792412084E88
:100586007B007A007924121120120F8B8E448F453E
:10059600120F8B120F878E488F49754FFF75500EBD
:1005A600755191E54745467BFF70067A0E79418085
:1005B600047A0E79438B528A538954E54945487B20
:1005C600FF70067A0E794580047A0E794A8B558A31
:1005D600568957E54545447BFF70067A0E79588063
:1005E600047A0E794A8B588A59895A7B007A00799F
:1005F6002412084E7B007A007924121120120F8BE8
:100606008E448F45120F8B120F878E488F49754F78
:10061600FF75500E75519EE54745467BFF70067A7D
:100626000E794180047A0E79438B528A538954E5B8
:100636004945487BFF70067A0E794580047A0E7923
:100646004A8B558A568957E54545447BFF70067A9D
:100656000E795880047A0E794A8B588A59895A7BC2
:10066600007A00792412084E7B007A007924121150
:10067600207F067E00120F8F8E448F45E545454448
:10068600700B754FFF75500E7551AB8017E54564BD
:100696001345447012754FFF75500E7551B385445E
:1006A60052854553FB802BE54564344544701275ED
:1006B6004FFF75500E7551B3854452854553FB80E7
:1006C60011754FFF75500E7551BD854452854553C2
:1006D6007B007A00792412084E7B007A0079241276
:1006E6001120120F8B120F878E488F49754FFF7599
:1006F600500E7551C5E54745467BFF70067A0E7963
:100706004180047A0E79438B528A538954E54945D0
:10071600487BFF70067A0E794580047A0E794A8BFB
:10072600558A5689577B007A00792412084E7B0039
:100736007A007924121120120F8B8E448F45120FE6
:100746008B120F878E488F49120F8B8E4A8F4B75EF
:100756004FFF75500E7551CFE54545447014E5477A
:1007660045467BFF70067A0E7941800C7A0E7943F6
:1007760080067BFF7A0E794A8B528A5389548546C6
:10078600558547568548578549587B007A00792410
:1007960012084E7B007A007924121120120F8B8EDC
:1007A600448F45754FFF75500E7551E3854452854C
:1007B60045537B007A00792412084E7B007A007933
:1007C60024121120120F8B8E448F45754FFF7550E2
:1007D6000E7551EF8544528545537B007A00792486
:0C07E60012084E7B007A007924021120DA
:10108C00752200752301752B00752C00752D0A7BBC
:10109C00FF7A1179457F607E097D007C0012104B30
:1010AC00E523640145227006209303120026A293C7
:0E10BC00E433752200F5237F0A1210CC80E287
:0A0015000308000000030B000000C8
:08114E008F993099FDC299222E
:101120008B4C8A4D894EAB4CAA4DA94E120B4E608A
:1011300013054EE54E7002054D14F9120B4EFF12C9
:05114000114E80E222C7
:03002300020FFDCC
:100FFD00C0E0C0F0C083C082C0D075D000C000C0BA
:10100D0001C002C003C004C005C006C0073098135C
:10101D00C298AB0BAA0CA90D850A82850983AF99DD
:10102D00120CBBD007D006D005D004D003D002D00F
:0E103D0001D000D0D0D082D083D0F0D0E032ED
:10104B008B288A29892A438920E4F587759850AB28
:10105B0007AA06A905A8047F127E7AFDFC120BF2E3
:10106B00EFF404F58D858D8BD2AFD2ACD28E852863
:10107B0008852909852A0A852B0B852C0C852D0DB6
:01108B002242
:03000000020EFBF2
:0C0EFB00787FE4F6D8FD75815F020F429D
:100B4E00BB010689828A83E0225002E722BBFE02A5
:090B5E00E32289828A83E49322D8
:100B6700E88FF0A4CC8BF0A42CFCE98EF0A42CFC2D
:100B77008AF0EDA42CFCEA8EF0A4CDA8F08BF0A4AB
:100B87002DCC3825F0FDE98FF0A42CCD35F0FCEB0A
:100B97008EF0A4FEA9F0EB8FF0A4CFC5F02ECD39CF
:0F0BA700FEE43CFCEAA42DCE35F0FDE43CFC223C
:100BB60075F008758200EF2FFFEE33FECD33CDCCF6
:100BC60033CCC58233C5829BED9AEC99E582984079
:100BD6000CF582EE9BFEED9AFDEC99FC0FD5F0D656
:100BE600E4CEFBE4CDFAE4CCF9A88222B800C1B980
:100BF6000059BA002DEC8BF084CFCECDFCE5F0CBBE
:100C0600F97818EF2FFFEE33FEED33FDEC33FCEBF6
:100C160033FB10D703994004EB99FB0FD8E5E4F9B1
:100C2600FA227818EF2FFFEE33FEED33FDEC33FC9E
:100C3600C933C910D7059BE99A4007EC9BFCE99A92
:100C4600F90FD8E0E4C9FAE4CCFB2275F010EF2FD7
:100C5600FFEE33FEED33FDCC33CCC833C810D707D7
:100C66009BEC9AE899400AED9BFDEC9AFCE899F812
:0E0C76000FD5F0DAE4CDFBE4CCFAE4C8F922A5
:100C8400E8600FEFC333FFEE33FEED33FDEC33FCCE
:030C9400D8F12272
:100C97007401FF3395E0FEFDFC080808E6CF2FF648
:100CA70018E6CE3EF618E6CD3DF618E6CC3CF62221
:060CB7008A838982E473C8
:1007F200E55B244FF8E6055B22784C300702784F20
:10080200E475F001120CFC020B4E2000EB7F2ED29D
:10081200008018EF540F2490D43440D4FF30040BDE
:10082200EF24BFB41A0050032461FFE55C60021597
:100832005C055FE55F7002055E30070D784CE4757C
:10084200F001120CFCEF020CEA0210F97403D20759
:100852008003E4C207F55B8B4C8A4D894EE4F55C5C
:10086200F55EF55FE55C60077F2012082D80F57567
:100872005DFFC201C200C202C203C205C206C208B3
:100882001207FBFF700D3007057F0012083EAF5FB5
:10089200AE5E22B4255FC2D5C2041207FBFF24D08C
:1008A200B40A00501A75F00A785C30D50508B6FF14
:1008B2000106C6A426F620D5047002D20380D924EC
:1008C200CFB41A00EF5004C2E5D204020A3ED201AC
:1008D20080C6D20080C0D20280BCD2D580BAD205F6
:1008E20080B47F2012082D2002077401B55C0040FD
:1008F200F11207F2FF12082D020866D208D2068012
:10090200951207F2FB1207F2FA1207F2F94A4B703C
:1009120006790F7A0B7BFF20022EE55C602A7E00AF
:100922008E82758300120CBD60060EEE655D70F05E
:10093200C2D5EBC0E0EAC0E0E9C0E0EE120A85D021
:10094200E0F9D0E0FAD0E0FB120B4EFF60AAEBC058
:10095200E0EAC0E0E9C0E012082DD0E02401F9D0BD
:10096200E03400FAD0E0FBE55D0460DCD55DD980BF
:10097200877BFF7A0A7981D202809C791080027982
:1009820008C206C2088008D2D5790A8004790AC250
:10099200D5E55D047002F55DE4FAFDFEFF1207F293
:1009A200FC7B082001131207F2FD7B1030000A12B3
:1009B20007F2FE1207F2FF7B20EC3382D592D5506C
:1009C20013C3E43000069FFFE49EFEE42001039D72
:1009D200FDE49CFCE4CBF8C201EC700CCFCECDCC94
:1009E200E824F8F870F38017C3EF33FFEE33FEED1F
:1009F20033FDEC33FCEB33FB994002FB0FD8E9EB00
:100A0200300105F8D0E0C448B201C0E00AEC4D4E16
:100A12004F78207B0070C2EAB55D0040BCC0E01296
:100A22000A87D0F0D0E0200104C4C0E0C4B201C003
:100A3200F0120816D0F0D5F0EB020866120D0C0980
:100A42000353097D5808D44C08D04209814F0989C3
:0F0A52004409894908E943098F55097346097317
:100A6100450973470B2F5008D82D08DC2E08FF2BA2
:100A710008E02308FD200B182A089848000008F711
:100A81003F3F3F00790AA2D5200314300509B91070
:100A9100020404B9080104A2D52006025001042071
:100AA10002689202B55C005034C0E07F2030031927
:100AB1007F30A20272067205500F120ADEC202C214
:100AC10006C205C2087F30800F300503E9C0E0127D
:100AD100082D300503D0E0F9D0E0B55CCC30051726
:100AE1007F30B9100C12082D7F583004077F7880B1
:100AF10003B9080312082D3002057F2D02082D7F4E
:100B0100202008F87F2B2006F322920280CF286E46
:100B1100756C6C2900D2011207F23001F8C201781C
:100B21005C30D50108F60208982D50434958120748
:100B3100F22403B405004001E4900B2A9312081E2D
:0D0B4100743A12081ED203755C0402097D8F
:100F070002108CE493A3F8E493A34003F68001F264
:100F170008DFF48029E493A3F85407240CC8C333EB
:100F2700C4540F4420C8834004F456800146F6DFBA
:100F3700E4800B0102040810204080900015E47E35
:100F4700019360BCA3FF543F30E509541FFEE493AF
:100F5700A360010ECF54C025E060A840B8E493A376
:100F6700FAE493A3F8E493A3C8C582C8CAC583CAA1
:100F7700F0A3C8C582C8CAC583CADFE9DEE780BE59
:01001F0000E0
:100CBD00BB010CE58229F582E5833AF583E02250EC
:100CCD0006E92582F8E622BBFE06E92582F8E22236
:0D0CDD00E58229F582E5833AF583E4932250
:100CEA00BB010689828A83F0225002F722BBFE01E9
:020CFA00F322E3
:100CFC00FAE6FB0808E6F925F0F618E6CA3AF622F9
:100D0C00D083D082F8E4937012740193700DA3A376
:100D1C0093F8740193F5828883E47374029368608A
:060D2C00EFA3A3A380DF8A
:1010F900EFB40A07740D121104740A309811A899F3
:10110900B8130CC2983098FDA899C298B811F63056
:0711190099FDC299F599222E
:00000001FF
