:100D19002D2D736176652D2D646174612D2D0D0066
:100D29004D494E413A202020203078253033580D46
:100D3900004D49413A202020202030782530335871
:100D49000D004D494E3A202020202030782530339F
:100D5900580D00413A2020202020202030782530CD
:100D690032580D00443A20202020202020307825B8
:100D79003032580D00463A2020202020202030789B
:100D8900253032580D005349472D4A4C3A20202529
:100D9900640D005349472D4A4E453A2025640D00FC
:100DA90053454C2D41423A202025640D0043484BC0
:100DB9002D49523A202025640D0043484B2D494EB8
:100DC900543A2025640D0043484B2D4A453A2020CA
:100DD90025640D0043484B2D4A4E453A2025640DA4
:100DE9000043484B2D4A423A202025640D004348D0
:100DF9004B2D4A42453A2025640D0043484B2D4A64
:100E09004C3A202025640D0043484B2D4A4C453A65
:100E19002025640D0049523A25732025730D00528F
:100E290000570044427573000049463A257320254E
:100E3900732025730D00414275730049503A25739B
:100E49002025732025730D0053503A2573202573EF
:100E59002025730D0041523A2573202573202573EF
:100E69000D0042523A25732025732025730D004346
:100E7900523A25732025732025730D0044523A25D3
:100E8900732025732025730D00414C553A2B2B0DEA
:100E990000414C553A307846460D00414C553A25AB
:100EA900780D0054523A25732025730D004D454D98
:100EB9003A2573204F453A25642057453A25640D54
:100EC900005349472D524F4D3A25640D0053494768
:090ED9002D52414D3A25640D0033
:0810B1007F017E007D007C0040
:1010B9008F5B8E5A8D598C58E47B0AFAF9F8120B1A
:1010C9004E8F5B8E5A8D598C58785874FF120C804C
:0710D900EC4D4E4F70F322B5
:09112C008B248A25892602113565
:10000300C2911210B1D2917F017E007D007C00026B
:0200130010B922
:080F6E008E468F477F017E00D3
:040F76008E4C8F4DC1
:100F7A00E4F557F556F555F554F54EF54FC3E54FDB
:100F8A00954DE54E954C5049A290E433F553755270
:100F9A00007551007550001210B1C2921210B1D2F0
:100FAA00921210B1AF53AE52AD51AC50A94FA80135
:100FBA00120C6BE5574FF557E5564EF556E5554D6C
:100FCA00F555E5544CF554054FE54F70B0054E8084
:090FDA00ACAF57AE56AD55AC5456
:010FE30022EB
:100026001200037BFF7A0D79191211077F0C7E00EF
:10003600120F768E448F45754FFF75500D755129F9
:100046008544528545537B007A0079241208357B16
:10005600007A0079241211077F0C7E00120F768E2B
:10006600448F45754FFF75500D75513A854452853D
:1000760045537B007A0079241208357B007A007993
:10008600241211077F0C7E00120F768E448F457561
:100096004FFF75500D75514B8544528545537B0076
:1000A6007A0079241208357B007A00792412110728
:1000B6007F087E00120F768E448F45754FFF755070
:1000C6000D75515C8544528545537B007A00792431
:1000D6001208357B007A0079241211077F087E000A
:1000E600120F768E448F45754FFF75500D75516D05
:1000F6008544528545537B007A0079241208357B66
:10010600007A0079241211077F087E00120F768E7E
:10011600448F45754FFF75500D75517E8544528548
:1001260045537B007A0079241208357B007A0079E2
:1001360024121107120F728E448F45754FFF7550AA
:100146000D75518F8544528545537B007A0079247D
:100156001208357B007A007924121107120F728E6D
:10016600448F45754FFF75500D75519C85445285DA
:1001760045537B007A0079241208357B007A007992
:10018600241211077F027E00120F768E448F45756A
:100196004FFF75500D7551A98544528545537B0017
:1001A6007A0079241208357B007A00792412110727
:1001B600120F728E448F45754FFF75500D7551B6EF
:1001C6008544528545537B007A0079241208357B95
:1001D600007A007924121107120F728E448F45752A
:1001E6004FFF75500D7551C38544528545537B00AD
:1001F6007A0079241208357B007A007924121107D7
:10020600120F728E448F45754FFF75500D7551D084
:100216008544528545537B007A0079241208357B44
:10022600007A007924121107120F728E448F4575D9
:100236004FFF75500D7551DD8544528545537B0042
:100246007A0079241208357B007A00792412110786
:10025600120F728E448F45754FFF75500D7551EA1A
:100266008544528545537B007A0079241208357BF4
:10027600007A007924121107120F728E448F457589
:100286004FFF75500D7551F78544528545537B00D8
:100296007A0079241208357B007A00792412110736
:1002A600120F728E448F45754FFF75500E755104AF
:1002B6008544528545537B007A0079241208357BA4
:1002C600007A007924121107120F728E448F457539
:1002D6004FFF75500E7551118544528545537B006D
:1002E6007A0079241208357B007A007924121107E6
:1002F600120F72120F6E8E488F49754FFF75500E92
:1003060075511EE54745467BFF70067A0E792880B3
:10031600047A0E792A8B528A538954E54945487BDB
:10032600FF70067A0E792C80047A0E79318B558A05
:100336005689577B007A0079241208357B007A00AB
:100346007924121107120F728E448F45120F721202
:100356000F6E8E488F49754FFF75500E755132E5F9
:100366004745467BFF70067A0E792880047A0E7917
:100376002A8B528A538954E54945487BFF70067A91
:100386000E792C80047A0E79318B558A568957E579
:100396004545447BFF70067A0E793F80047A0E79D4
:1003A600318B588A59895A7B007A0079241208358C
:1003B6007B007A007924121107120F728E448F4542
:1003C600120F72120F6E8E488F49754FFF75500EC1
:1003D600755144E54745467BFF70067A0E792880BD
:1003E600047A0E792A8B528A538954E54945487B0B
:1003F600FF70067A0E792C80047A0E79318B558A35
:10040600568957E54545447BFF70067A0E793F804D
:10041600047A0E79318B588A59895A7B007A007989
:10042600241208357B007A007924121107120F7204
:100436008E448F45120F72120F6E8E488F49754F7C
:10044600FF75500E755151E54745467BFF70067A9C
:100456000E792880047A0E792A8B528A538954E5BC
:100466004945487BFF70067A0E792C80047A0E790E
:10047600318B558A568957E54545447BFF70067A88
:100486000E793F80047A0E79318B588A59895A7BC6
:10049600007A0079241208357B007A00792412113B
:1004A60007120F728E448F45120F72120F6E8E480E
:1004B6008F49754FFF75500E75515EE54745467B72
:1004C600FF70067A0E792880047A0E792A8B528A72
:1004D600538954E54945487BFF70067A0E792C808E
:1004E600047A0E79318B558A568957E54545447B02
:1004F600FF70067A0E793F80047A0E79318B588A1E
:1005060059895A7B007A0079241208357B007A00D3
:100516007924121107120F728E448F45120F721230
:100526000F6E8E488F49754FFF75500E75516BE5EE
:100536004745467BFF70067A0E792880047A0E7945
:100546002A8B528A538954E54945487BFF70067ABF
:100556000E792C80047A0E79318B558A568957E5A7
:100566004545447BFF70067A0E793F80047A0E7902
:10057600318B588A59895A7B007A007924120835BA
:100586007B007A007924121107120F728E448F4570
:10059600120F72120F6E8E488F49754FFF75500EEF
:1005A600755178E54745467BFF70067A0E792880B7
:1005B600047A0E792A8B528A538954E54945487B39
:1005C600FF70067A0E792C80047A0E79318B558A63
:1005D600568957E54545447BFF70067A0E793F807C
:1005E600047A0E79318B588A59895A7B007A0079B8
:1005F600241208357B007A007924121107120F7233
:100606008E448F45120F72120F6E8E488F49754FAA
:10061600FF75500E755185E54745467BFF70067A96
:100626000E792880047A0E792A8B528A538954E5EA
:100636004945487BFF70067A0E792C80047A0E793C
:10064600318B558A568957E54545447BFF70067AB6
:100656000E793F80047A0E79318B588A59895A7BF4
:10066600007A0079241208357B007A007924121169
:10067600077F067E00120F768E448F45E54545447A
:10068600700C754FFF75500E755192FB802BE5452A
:10069600643445447012754FFF75500E75519A8536
:1006A6004452854553FB8011754FFF75500E7551A9
:1006B600A48544528545537B007A00792412083577
:1006C6007B007A007924121107120F72120F6E8EB8
:1006D600488F49754FFF75500E7551ACE547454635
:1006E6007BFF70067A0E792880047A0E792A8B525F
:1006F6008A538954E54945487BFF70067A0E792C62
:1007060080047A0E79318B558A5689577B007A0098
:1007160079241208357B007A007924121107120F0A
:10072600728E448F45120F72120F6E8E488F4912C9
:100736000F728E4A8F4B754FFF75500E7551B6E589
:100746004545447014E54745467BFF70067A0E79A9
:1007560028800C7A0E792A80067BFF7A0E79318BF7
:10076600528A538954854655854756854857854943
:10077600587B007A0079241208357B007A007924A8
:10078600121107120F728E448F45754FFF75500E6A
:100796007551CA8544528545537B007A00792412E7
:1007A60008357B007A007924121107120F728E44E5
:1007B6008F45754FFF75500E7551D6854452854548
:1007C600537B007A0079241208357B007A0079245D
:0307D60002110706
:10107300752200752301752B00752C00752D0A7BD5
:10108300FF7A11792C7F607E097D007C001210327B
:10109300E523640145227006209303120026A293E0
:0E10A300E433752200F5237F0A1210B380E2B9
:0A0015000308000000030B000000C8
:081135008F993099FDC2992247
:101107008B4C8A4D894EAB4CAA4DA94E120B3560BC
:1011170013054EE54E7002054D14F9120B35FF12FB
:05112700113580E222F9
:03002300020FE4E5
:100FE400C0E0C0F0C083C082C0D075D000C000C0D3
:100FF40001C002C003C004C005C006C00730981376
:10100400C298AB0BAA0CA90D850A82850983AF99F6
:10101400120CA2D007D006D005D004D003D002D041
:0E10240001D000D0D0D082D083D0F0D0E03206
:101032008B288A29892A438920E4F587759850AB41
:1010420007AA06A905A8047F127E7AFDFC120BD915
:10105200EFF404F58D858D8BD2AFD2ACD28E85287C
:1010620008852909852A0A852B0B852C0C852D0DCF
:01107200225B
:03000000020EE20B
:0C0EE200787FE4F6D8FD75815F020F29CF
:100B3500BB010689828A83E0225002E722BBFE02BE
:090B4500E32289828A83E49322F1
:100B4E00E88FF0A4CC8BF0A42CFCE98EF0A42CFC46
:100B5E008AF0EDA42CFCEA8EF0A4CDA8F08BF0A4C4
:100B6E002DCC3825F0FDE98FF0A42CCD35F0FCEB23
:100B7E008EF0A4FEA9F0EB8FF0A4CFC5F02ECD39E8
:0F0B8E00FEE43CFCEAA42DCE35F0FDE43CFC2255
:100B9D0075F008758200EF2FFFEE33FECD33CDCC0F
:100BAD0033CCC58233C5829BED9AEC99E582984092
:100BBD000CF582EE9BFEED9AFDEC99FC0FD5F0D66F
:100BCD00E4CEFBE4CDFAE4CCF9A88222B800C1B999
:100BDD000059BA002DEC8BF084CFCECDFCE5F0CBD7
:100BED00F97818EF2FFFEE33FEED33FDEC33FCEB10
:100BFD0033FB10D703994004EB99FB0FD8E5E4F9CB
:100C0D00FA227818EF2FFFEE33FEED33FDEC33FCB7
:100C1D00C933C910D7059BE99A4007EC9BFCE99AAB
:100C2D00F90FD8E0E4C9FAE4CCFB2275F010EF2FF0
:100C3D00FFEE33FEED33FDCC33CCC833C810D707F0
:100C4D009BEC9AE899400AED9BFDEC9AFCE899F82B
:0E0C5D000FD5F0DAE4CDFBE4CCFAE4C8F922BE
:100C6B00E8600FEFC333FFEE33FEED33FDEC33FCE7
:030C7B00D8F1228B
:100C7E007401FF3395E0FEFDFC080808E6CF2FF661
:100C8E0018E6CE3EF618E6CD3DF618E6CC3CF6223A
:060C9E008A838982E473E1
:1007D900E55B244FF8E6055B22784C300702784F39
:1007E900E475F001120CE3020B352000EB7F2ED2E9
:1007F900008018EF540F2490D43440D4FF30040BF8
:10080900EF24BFB41A0050032461FFE55C600215B0
:100819005C055FE55F7002055E30070D784CE47595
:10082900F001120CE3EF020CD10210E07403D207BD
:100839008003E4C207F55B8B4C8A4D894EE4F55C75
:10084900F55EF55FE55C60077F2012081480F57599
:100859005DFFC201C200C202C203C205C206C208CC
:100869001207E2FF700D3007057F00120825AF5F00
:10087900AE5E22B4255FC2D5C2041207E2FF24D0BE
:10088900B40A00501A75F00A785C30D50508B6FF2D
:100899000106C6A426F620D5047002D20380D92405
:1008A900CFB41A00EF5004C2E5D204020A25D201DE
:1008B90080C6D20080C0D20280BCD2D580BAD2050F
:1008C90080B47F201208142002077401B55C00402F
:1008D900F11207D9FF12081402084DD208D2068076
:1008E900951207D9FB1207D9FA1207D9F94A4B70A1
:1008F9000679F67A0A7BFF20022EE55C602A7E00E3
:100909008E82758300120CA460060EEE655D70F090
:10091900C2D5EBC0E0EAC0E0E9C0E0EE120A6CD053
:10092900E0F9D0E0FAD0E0FB120B35FF60AAEBC08A
:10093900E0EAC0E0E9C0E0120814D0E02401F9D0EF
:10094900E03400FAD0E0FBE55D0460DCD55DD980D8
:10095900877BFF7A0A7968D202809C7910800279B4
:1009690008C206C2088008D2D5790A8004790AC269
:10097900D5E55D047002F55DE4FAFDFEFF1207D9C5
:10098900FC7B082001131207D9FD7B1030000A12E5
:1009990007D9FE1207D9FF7B20EC3382D592D550B7
:1009A90013C3E43000069FFFE49EFEE42001039D8B
:1009B900FDE49CFCE4CBF8C201EC700CCFCECDCCAD
:1009C900E824F8F870F38017C3EF33FFEE33FEED38
:1009D90033FDEC33FCEB33FB994002FB0FD8E9EB19
:1009E900300105F8D0E0C448B201C0E00AEC4D4E30
:1009F9004F78207B0070C2EAB55D0040BCC0E012B0
:100A09000A6ED0F0D0E0200104C4C0E0C4B201C035
:100A1900F01207FDD0F0D5F0EB02084D120CF308E7
:100A2900EA5309645808BB4C08B74209684F097072
:0F0A39004409704908D043097655095A46095AAD
:100A480045095A470B165008BF2D08C32E08E62B38
:100A580008C72308E4200AFF2A087F48000008DEA8
:100A68003F3F3F00790AA2D5200314300509B91089
:100A7800020404B9080104A2D5200602500104208A
:100A880002689202B55C005034C0E07F2030031940
:100A98007F30A20272067205500F120AC5C202C246
:100AA80006C205C2087F30800F300503E9C0E01296
:100AB8000814300503D0E0F9D0E0B55CCC30051758
:100AC8007F30B9100C1208147F583004077F7880E3
:100AD80003B908031208143002057F2D0208147F99
:100AE800202008F87F2B2006F322920280CF286E60
:100AF800756C6C2900D2011207D93001F8C201784F
:100B08005C30D50108F602087F2D5043495812077A
:100B1800D92403B405004001E4900B119312080591
:0D0B2800743A120805D203755C04020964DA
:100EEE00021073E493A3F8E493A34003F68001F297
:100EFE0008DFF48029E493A3F85407240CC8C33305
:100F0E00C4540F4420C8834004F456800146F6DFD3
:100F1E00E4800B0102040810204080900015E47E4E
:100F2E00019360BCA3FF543F30E509541FFEE493C8
:100F3E00A360010ECF54C025E060A840B8E493A38F
:100F4E00FAE493A3F8E493A3C8C582C8CAC583CABA
:100F5E00F0A3C8C582C8CAC583CADFE9DEE780BE72
:01001F0000E0
:100CA400BB010CE58229F582E5833AF583E0225005
:100CB40006E92582F8E622BBFE06E92582F8E2224F
:0D0CC400E58229F582E5833AF583E4932269
:100CD100BB010689828A83F0225002F722BBFE0102
:020CE100F322FC
:100CE300FAE6FB0808E6F925F0F618E6CA3AF62212
:100CF300D083D082F8E4937012740193700DA3A390
:100D030093F8740193F5828883E4737402936860A3
:060D1300EFA3A3A380DFA3
:1010E000EFB40A07740D1210EB740A309811A89926
:1010F000B8130CC2983098FDA899C298B811F63070
:0711000099FDC299F5992247
:00000001FF
